{
  "contractName": "TestContract",
  "abi": [
    {
      "constant": true,
      "inputs": [
        {
          "internalType": "uint256",
          "name": "",
          "type": "uint256"
        }
      ],
      "name": "arr",
      "outputs": [
        {
          "internalType": "address",
          "name": "",
          "type": "address"
        }
      ],
      "payable": false,
      "stateMutability": "view",
      "type": "function"
    },
    {
      "constant": true,
      "inputs": [],
      "name": "getAdopters",
      "outputs": [
        {
          "internalType": "address[16]",
          "name": "",
          "type": "address[16]"
        }
      ],
      "payable": false,
      "stateMutability": "view",
      "type": "function"
    }
  ],
  "bytecode": "0x608060405234801561001057600080fd5b506101fb806100206000396000f3fe608060405234801561001057600080fd5b50600436106100365760003560e01c80633de4eb171461003b57806371e5ee5f14610081575b600080fd5b6100436100ef565b6040518082601060200280838360005b8381101561006e578082015181840152602081019050610053565b5050505090500191505060405180910390f35b6100ad6004803603602081101561009757600080fd5b8101908080359060200190929190505050610170565b604051808273ffffffffffffffffffffffffffffffffffffffff1673ffffffffffffffffffffffffffffffffffffffff16815260200191505060405180910390f35b6100f76101a3565b6000601080602002604051908101604052809291908260108015610166576020028201915b8160009054906101000a900473ffffffffffffffffffffffffffffffffffffffff1673ffffffffffffffffffffffffffffffffffffffff168152602001906001019080831161011c575b5050505050905090565b6000816010811061017d57fe5b016000915054906101000a900473ffffffffffffffffffffffffffffffffffffffff1681565b60405180610200016040528060109060208202803883398082019150509050509056fea265627a7a72315820e40b6bb1ed7cafcce9392dbeb03ea9054729d2d4f795a4c7e99cc2337c650a7564736f6c63430005100032",
  "source": "// SPDX-License-Identifier: MIT\npragma solidity >=0.4.22 <0.8.0;\n\ncontract TestContract {\n    address[16] public arr; //array of ethereum addresses\n\n    // Retrieving the adopters\n    function getAdopters() public view returns (address[16] memory) {\n        return arr;\n    }\n}\n\n\n\n\n\n",
  "sourcePath": "/Users/guillermotala/Desktop/repos/pet-shop-tutorial/contracts/TestContract.sol",
  "compiler": {
    "name": "solc",
    "version": "0.5.16+commit.9c3226ce.Emscripten.clang"
  },
  "schemaVersion": "3.4.4",
  "updatedAt": "2021-12-23T16:56:43.465Z",
  "networkType": "ethereum",
  "devdoc": {
    "methods": {}
  },
  "userdoc": {
    "methods": {}
  }
}